:100000000C9477000C949F000C949F000C949F001C
:100010000C949F000C949F000C949F000C949F00E4
:100020000C949F000C949F000C949F000C949F00D4
:100030000C949F000C949F000C949F000C949F00C4
:100040000C94B60D0C949F000C94DC0C0C94B60C24
:100050000C949F000C949F000C949F000C949F00A4
:100060000C94D2130C949F005A026A02C502D0036A
:100070009E03C10220034E044E044E044604F504C0
:1000800024057305AE071908010976069512981222
:100090009B129E12A112A412A712000000080002D7
:1000A0000100000304070000000000000000000041
:1000B0000000250028002B0000000000240027007D
:1000C0002A000404040404040404020202020202DA
:1000D000030303030303010204081020408001020C
:1000E00004081020010204081020A8166417112427
:1000F0001FBECFEFD8E0DEBFCDBF25E0A8E0B3E064
:1001000001C01D92A73EB207E1F713E0A0E0B1E005
:10011000E8E5F4E302C005900D92A830B107D9F7E5
:1001200010E0C6E7D0E004C02197FE010E940D1840
:10013000C537D107C9F70E9400150C941F1A0C94FB
:1001400000008F929F92AF92BF92CF92DF92EF9278
:10015000FF920F931F93CF93DF93CDB7DEB76E97C8
:100160000FB6F894DEBF0FBECDBF0E94AA0D672B5D
:10017000682B692B41F40E94AA0D6230710581053C
:10018000910508F41CC10E94AA0D6093E2037093CC
:10019000E3038093E4039093E503C090DE03D090E3
:1001A000DF03E090E003F090E1036C157D058E0520
:1001B0009F0540F46093DE037093DF038093E003B8
:1001C0009093E103C090DE03D090DF03E090E00362
:1001D000F090E1039B01AC012C193D094E095F0928
:1001E00069017A013AEFC316D104E104F10408F47D
:1001F000E6C06093DE037093DF038093E003909387
:10020000E10384EF91E0A0E0B0E080931A059093C1
:100210001B05A0931C05B0931D0510921E0510929E
:100220001F051092200510922105809112059091D2
:100230001305A0911405B0911505809316059093B0
:100240001705A0931805B09319050E94AA0D609395
:1002500012057093130580931405909315050E9461
:10026000AA0D60930E0570930F058093100590936F
:1002700011050E94AA0D6B017C0168E371E0809179
:100280004E0590914F050E94B40C2AE041E050E0E9
:1002900060E070E080914E0590914F050E946B0CDC
:1002A0006FE371E080914E0590914F050E94B40C70
:1002B0002AE0B701A60180914E0590914F050E945A
:1002C0006B0C61E471E080914E0590914F050E94A6
:1002D000B40C8091120590911305A0911405B09172
:1002E0001505B701A601481B590B6A0B7B0B2AE0C9
:1002F00080914E0590914F050E946B0C61E471E076
:1003000080914E0590914F050E94B40C40911205CA
:100310005091130560911405709115058091160593
:1003200090911705A0911805B0911905481B590B1C
:100330006A0B7B0B2AE080914E0590914F050E943D
:100340006B0C63E471E080914E0590914F050E9423
:10035000B40C0E94AA0DAB01BC012AE080914E05AD
:1003600090914F050E946B0CE0904E05F0904F0568
:1003700065E471E0C7010E94560C6AED71E0C701A7
:100380000E94560C0E94AA0D6B017C014B015C017E
:1003900045E0840E911CA11CB11C0E94AA0D6C1595
:1003A0007D058E059F0508F076C70E94AA0D609313
:1003B000120570931305809314059093150588EC2E
:1003C00090E0A0E0B0E080930A0390930B03A09329
:1003D0000C03B0930D0361E080E090E00E94D21026
:1003E000811160C78091E70381115CC710921403EB
:1003F00010921503109216031092170361E081E02A
:1004000090E00E94D210882309F448C280E48093CF
:100410007C0080917A00806480937A0080917A00D9
:1004200086FDFCCF809178002091790090E0922B9E
:10043000893E53E095078CF4823391058CF0863920
:1004400091058CF08E3521E0920784F0823C31E0FA
:1004500093077CF08E3E92407CF025E030E00EC0A9
:1004600020E030E00BC021E030E008C022E030E0C6
:1004700005C023E030E002C024E030E0822F20936A
:1004800001012530310519F41092090307C21092B9
:10049000DD0390910903911101C2E091E6034E2F13
:1004A00050E04B30510508F0F9C1FA01EC5CFF4F08
:1004B0000C940D18223059F0243031F0213009F01D
:1004C000EDC12093DB03EAC11092DC0367C11092F7
:1004D000DB03E4C1223009F44DC0243021F0213087
:1004E00009F0DCC13EC08091DC03823041F1A8F408
:1004F0008823C9F0813009F0D1C18091EE03909139
:10050000EF03A091F0038093EB039093EC03A0938F
:10051000ED031092DA0383E0BFC1833001F1843030
:1005200009F4B9C1BBC11092DA0387E0E1EFF3E04F
:10053000A3EDB3E001900D928A95E1F79AC0809106
:10054000E8039091E903A091EA038093EB03909371
:10055000EC03A093ED031092DA0384E09DC185E0E3
:100560009BC18091DC03882309F484C1815080936E
:10057000DC0380C18091DC03843008F07BC18F5F95
:10058000F6CF243009F08AC109C19091DA032230F4
:1005900091F118F42130A1F04FC0233009F470C15B
:1005A000243009F049C0943009F4F8C0953009F4BA
:1005B00062C0933009F072C11092DA0386E06CC118
:1005C000913059F088F0923009F068C18091D303DE
:1005D0008B3308F04FC18F5F1AC08091D4038B33E7
:1005E00008F048C18F5F1CC08091D503873108F0A7
:1005F00041C18F5F1EC0913069F0A8F0923009F0C0
:100600004DC18091D303882309F434C18150809374
:10061000D30330C18091D403882309F42BC18150C6
:100620008093D40327C18091D503882309F422C184
:1006300081508093D5031EC1953008F01BC11EC1A7
:100640009091DA03223009F449C018F4213011F1F5
:1006500071C0233009F414C1243009F06BC0953007
:1006600051F0963021F0943009F018C197C01092E3
:10067000DA0382E011C1E090D9030091D803209100
:10068000D7034091D6036091D4038091D5030E9493
:10069000AB1184C0913069F028F0923089F093302A
:1006A000B1F0FCC08091D7038F3108F0E3C08F5FB9
:1006B00023C08091D8038C3008F0DCC08F5F25C048
:1006C0008091D903833608F0D5C08F5F27C0809111
:1006D000D603863008F0CEC08F5F29C0913079F004
:1006E00028F09230A9F09330E1F0D8C08091D70380
:1006F000823008F4BFC081508093D703BBC0809183
:10070000D803823008F4B6C081508093D803B2C0B9
:100710008091D903882309F4ADC081508093D90317
:10072000A9C08091D603882309F4A4C08150809386
:10073000D603A0C0963008F09DC0A0C09091DA0307
:10074000223009F47DC090F1233009F499C024309F
:1007500009F08EC09330B1F09430A9F58091EB038D
:100760009091EC03A091ED038093E8039093E9034B
:10077000A093EA0320E14091EA036091E8038091AD
:10078000E90347C08091E8039091E903A091EA034F
:100790008093EB039093EC03A093ED0381E07CC086
:1007A0009091DA03223009F44BC018F48130A1F1A2
:1007B0005FC0233009F464C0243009F059C093307D
:1007C00071F0943099F0923009F068C08091ED0397
:1007D00091E089278093ED03909309035FC0809196
:1007E000EE039091EF03A091F003D2CF8091EB0341
:1007F0009091EC03A091ED038093EE039093EF03AF
:10080000A093F00328E04091F0036091EE03809103
:10081000EF030E943517C2CF913031F058F092307B
:10082000E9F58093ED0327C08091EB038B3310F53E
:100830008F5F13C08091EC038731E0F48F5F15C0A8
:10084000913031F068F0923049F51092ED0312C00A
:100850008091EB03882371F081508093EB030AC0F1
:100860008091EC03882331F081508093EC0302C027
:10087000943020F081E08093090310C09F5F03C093
:100880009923C1F391509093DA03F4CF1092D203DD
:1008900081E08093000180E00E941A1184EF91E0D2
:1008A000A0E0B0E080931E0390931F03A093200369
:1008B000B093210361E082E090E00E94D2108111A8
:1008C000F4C48091E7038111F0C488EE93E0A0E0C6
:1008D000B0E08093280390932903A0932A03B09358
:1008E0002B0361E083E090E00E94D210811104C0EC
:1008F0008091E703882361F08091DD038F5F80930F
:10090000DD03843128F0109200018AE00E941A1160
:1009100084EF91E0A0E0B0E0809332039093330342
:10092000A0933403B09335036091F00384E090E02A
:100930000E94D210811104C08091E703882379F0CE
:100940009091F3038091EF03981309C09091F20303
:100950008091EE03981303C081E08093DB0384EF62
:1009600091E0A0E0B0E080933C0390933D03A0931E
:100970003E03B0933F036091EA0385E090E00E945C
:10098000D210811104C08091E703882371F0909107
:10099000F3038091E903981308C09091F2038091CA
:1009A000E803981302C01092DB03109264031092C4
:1009B0006503109266031092670361E089E090E09E
:1009C0000E94D210811178C48091E703811174C410
:1009D000E091E6038E2F90E08730910508F046C441
:1009E000FC01E15CFF4F0C940D1880E991E0A0E060
:1009F000B0E080936E0390936F03A0937003B09365
:100A0000710361E08AE090E00E94D21081115FC41E
:100A10008091E70381115BC480E496E0A0E0B0E040
:100A20008093780390937903A0937A03B0937B0328
:100A300061E08BE090E00E94D21081119DC4809112
:100A4000E703811199C412C484E690E0A0E0B0E00D
:100A50008093820390938303A0938403B0938503D0
:100A600061E08CE090E00E94D210882309F4FEC37C
:100A700060E081E00E94650F2091DC0330E02E7F72
:100A800016E0129FC001139F900D1124805A9A4FB7
:100A90000E947A0F61E081E00E94650F2091DC03E3
:100AA00030E02E7F2F5F3F4F129FC001139F900DAC
:100AB0001124805A9A4F0E947A0F6091DC03617072
:100AC000615080E00E94650F6BE571E084E895E07D
:100AD0000E94B40C6091DC03617080E00E94650F9D
:100AE0006CEE71E0BFC384E690E0A0E0B0E08093DC
:100AF0008C0390938D03A0938E03B0938F0361E0DA
:100B00008DE090E00E94D210882309F4AFC360E02A
:100B100080E00E94650F6AE571E0CE0107960E94B1
:100B2000410C6091D503CE0101960E94C4129E0132
:100B3000295F3F4FAE014F5F5F4F60E08091DA0366
:100B40000E940F11CE0101960E94CD10CE01079692
:100B50000E94CD1060E082E00E94650F61E471E0C8
:100B600084E895E00E94B40C60E083E00E94650F89
:100B70006AE571E0CE0107960E94410C6091D403B2
:100B8000CE0101960E94C4129E01295F3F4FAE0123
:100B90004F5F5F4F61E08091DA030E940F11CE0139
:100BA00001960E94CD10CE0107960E94CD1060E004
:100BB00085E00E94650F61E471E084E895E00E94A1
:100BC000B40C60E086E00E94650F6AE571E0CE013A
:100BD00007960E94410C6091D303CE0101960E94BA
:100BE000C4129E01295F3F4FAE014F5F5F4F62E02D
:100BF0008091DA030E940F11CE0101960E94CD1060
:100C0000CE0107960E94CD1060E08BE00E94650F38
:100C10006CEE71E0CE0107960E94410C6BE571E02D
:100C2000CE0101960E94410C9E01295F3F4FAE010B
:100C30004F5F5F4F63E08091DA030E940F11CE0196
:100C400001960E94CD10CE0107960E94CD1060E063
:100C50008CE00E94650F67E971E084E895E00E94EE
:100C6000B40C61E080E00E94650F6CEE71E0CE0193
:100C700007960E94410C6BE571E0CE0101960E943F
:100C8000410C9E01295F3F4FAE014F5F5F4F64E013
:100C90008091DA030E940F11CE0101960E94CD10BF
:100CA000CE0107960E94CD1061E081E00E94650FA1
:100CB0006CE971E084E895E00E94B40C61E08CE09E
:100CC0000E94650F6CEE71E0CE0107960E94410C08
:100CD0006BE571E0CE0101960E94410C9E01295FF7
:100CE0003F4FAE014F5F5F4F65E078C284E690E012
:100CF000A0E0B0E08093960390939703A0939803AD
:100D0000B093990361E08EE090E00E94D2108823B6
:100D100009F4ACC260E080E00E94650F6AE571E012
:100D2000CE0107960E94410C6091D703CE01019637
:100D30000E94C4129E01295F3F4FAE014F5F5F4F7B
:100D400060E08091DA030E940F11CE0101960E94AB
:100D5000CD10CE0107960E94CD1060E082E00E9487
:100D6000650F6DE571E084E895E00E94B40C60E0E9
:100D700083E00E94650F6AE571E0CE0107960E944C
:100D8000410C6091D803CE0101960E94C4129E01CD
:100D9000295F3F4FAE014F5F5F4F61E08091DA0303
:100DA0000E940F11CE0101960E94CD10CE01079630
:100DB0000E94CD1060E085E00E94650F6DE571E056
:100DC00084E895E00E94B40C60E086E00E94650F24
:100DD0006AE571E0CE0107960E94410C6091D9034B
:100DE000CE0101960E94C4129E01295F3F4FAE01C1
:100DF0004F5F5F4F62E08091DA030E940F11CE01D6
:100E000001960E94CD10CE0107960E94CD1060E0A1
:100E10008BE00E94650F69E571E0CE0107960E94A4
:100E2000410C6091D603CE0101960E9488129E016A
:100E3000295F3F4FAE014F5F5F4F63E08091DA0360
:100E40000E940F11CE0101960E94CD10CE0107968F
:100E50000E94CD1061E080E00E94650F6CEE71E0B1
:100E6000CE0107960E94410C6BE571E0CE01019620
:100E70000E94410C9E01295F3F4FAE014F5F5F4FC3
:100E800064E08091DA030E940F11CE0101960E9466
:100E9000CD10CE0107960E94CD1061E081E00E9446
:100EA000650F64EA71E084E895E00E94B40C61E0AB
:100EB00086E00E94650F6CEE71E0CE0107960E94FD
:100EC000410C6BE571E0CE0101960E94410C9E0140
:100ED000295F3F4FAE014F5F5F4F65E08091DA03BE
:100EE0000E940F11CE0101960E94CD10CE010796EF
:100EF0000E94CD1061E087E00E94650F60E772E01C
:100F000084E895E00E94B40C61E08AE00E94650FDD
:100F10006CEE71E0CE0107960E94410C6BE571E02A
:100F2000CE0101960E94410C9E01295F3F4FAE0108
:100F30004F5F5F4F66E08091DA030E940F11CE0190
:100F400001960E94CD10CE0107960E94CD1061E05F
:100F50008BE00E94650F69EA71E084C184E690E04D
:100F6000A0E0B0E08093A0039093A103A093A2031C
:100F7000B093A30361E08FE090E00E94D210882339
:100F800009F474C160E080E00E94650F6AE571E0D9
:100F9000CE0107960E94410C6091EC03CE010196B0
:100FA0000E94C4129E01295F3F4FAE014F5F5F4F09
:100FB00060E08091DA030E940F11CE0101960E9439
:100FC000CD10CE0107960E94CD1060E082E00E9415
:100FD000650F61E471E084E895E00E94B40C60E084
:100FE00083E00E94650F6AE571E0CE0107960E94DA
:100FF000410C6091EB03CE0101960E94C4129E0148
:10100000295F3F4FAE014F5F5F4F61E08091DA0390
:101010000E940F11CE0101960E94CD10CE010796BD
:101020000E94CD1060E086E00E94650F6FE572E0DF
:101030006AC084E690E0A0E0B0E08093AA039093B9
:10104000AB03A093AC03B093AD0361E080E190E00B
:101050000E94D210882309F409C160E080E00E9458
:10106000650F6AE571E0CE0107960E94410C609120
:10107000EC03CE0101960E94C4129E01295F3F4FEE
:10108000AE014F5F5F4F60E08091DA030E940F1165
:10109000CE0101960E94CD10CE0107960E94CD1080
:1010A00060E082E00E94650F61E471E084E895E011
:1010B0000E94B40C60E083E00E94650F6AE571E075
:1010C000CE0107960E94410C6091EB03CE01019680
:1010D0000E94C4129E01295F3F4FAE014F5F5F4FD8
:1010E00061E08091DA030E940F11CE0101960E9407
:1010F000CD10CE0107960E94CD1060E086E00E94E0
:10110000650F60E872E084E895E00E94B40C60E04E
:101110008AE00E94650F67E571E0CE0107960E94A4
:10112000410C6091ED03CE0101960E94B3129E0125
:10113000295F3F4FAE014F5F5F4F62E08091DA035E
:101140000E940F11CE0101960E94CD10CE0107968C
:101150000E94CD1061E080E00E94650F6CEE71E0AE
:10116000CE0107960E94410C6BE571E0CE0101961D
:101170000E94410C9E01295F3F4FAE014F5F5F4FC0
:1011800063E08091DA030E940F11CE0101960E9464
:10119000CD10CE0107960E94CD1061E081E00E9443
:1011A000650F6CE971E084E895E00E94B40C61E0A1
:1011B0008CE00E94650F6CEE71E0CE0107960E94F4
:1011C000410C6BE571E0CE0101960E94410C9E013D
:1011D000295F3F4FAE014F5F5F4F64E08091DA03BC
:1011E0000E940F11CE0101960E94CD10CE010796EC
:1011F0000E94CD1061E08DE00E94650F60E772E013
:1012000031C084E690E0A0E0B0E08093B403909316
:10121000B503A093B603B093B70361E081E190E01A
:101220000E94D210882311F160E080E00E94650FD7
:101230006FEA71E084E895E00E94B40C60E089E018
:101240000E94650F60E08DE00E94650F69EB71E020
:1012500084E895E00E94B40C61E080E00E94650F94
:101260006CEB71E084E895E00E94B40C1092E70307
:101270006E960FB6F894DEBF0FBECDBFDF91CF9153
:101280001F910F91FF90EF90DF90CF90BF90AF90A4
:101290009F908F90089586169706A806B90608F0C5
:1012A0007CC883C80E943D11A1C89091080381E0C9
:1012B00089278093080309CB6091DB0382E00E94B9
:1012C0000E0D609100018AE00E940E0D81CB6CED45
:1012D00071E0CE0149960E94410C6091F103CE016C
:1012E00043960E94C4126091F203CE010D960E94B3
:1012F000C4126091F303CE0101960E94C412BE0194
:101300006F5F7F4FCE0107960E94380C61E471E059
:10131000CE0107960E946910BE01635F7F4F0E9455
:10132000821061E471E00E946910BE016D5E7F4F22
:101330000E948210BC01CE0149960E94B610CE01D7
:1013400007960E94CD10CE0101960E94CD10CE01CD
:101350000D960E94CD10CE0143960E94CD1060E004
:1013600084E00E94650FCE0149960E947A0FCE015B
:1013700049960E94CD1050CB8091D203823091F4D7
:101380008091F003882309F446C061E08AE00E945E
:10139000650F6091EE03CE010D960E94C41260911C
:1013A000EF0315C08330E8F1843009F0C7C08091A5
:1013B000EA03882381F161E08AE00E94650F609171
:1013C000E803CE010D960E94C4126091E903CE019C
:1013D00001960E94C412BE016F5F7F4FCE01079637
:1013E0000E94380C61E471E0CE0107960E946910FA
:1013F000BE01635F7F4F0E9482100E947A0FCE0170
:1014000007960E94CD10CE0101960E94CD10CE010C
:101410000D960E94CD108091D2038F5F8093D203EE
:1014200025CF811177C061E080E00E94650F6CE4F8
:1014300071E084E895E00E94B40C6CED71E0CE019F
:1014400049960E94410C6091F703CE0143960E9499
:10145000C4126091F603CE010D960E94C4126091F1
:10146000F503CE0101960E94C412BE016F5F7F4F4B
:10147000CE0107960E94380C6DE571E0CE0107960B
:101480000E946910BE01635F7F4F0E9482106DE56C
:1014900071E00E946910BE016D5E7F4F0E94821054
:1014A000BC01CE0149960E94B610CE0107960E945B
:1014B000CD10CE0101960E94CD10CE010D960E9456
:1014C000CD10CE0143960E94CD1041E050E06BE577
:1014D00071E0CE0149960E9429106091F403CE017B
:1014E00001960E9488124D815E8169817A81CE01C8
:1014F00049960E942910CE0101960E94CD1061E00C
:1015000082E00E94650FCE0149960E947A0FCE01BB
:1015100049967FCF813009F0A9CE61E080E00E943A
:10152000650F6FE571E084E895E00E94B40C61E01E
:101530008AE00E94650F6091F00312C08430D8F4F5
:1015400061E080E00E94650F6AE671E084E895E062
:101550000E94B40C61E08AE00E94650F6091EA038A
:10156000CE0101960E94B312CE0101960E947A0F1D
:10157000CE0101964ECF853009F078CE61E080E053
:101580000E94650F8091F803882319F065E771E0E8
:1015900002C066E871E084E895E00E94B40C109205
:1015A000D20364CECF92DF92EF92FF920F931F93FC
:1015B000CF93DF936C017A018B01C0E0D0E0CE15B0
:1015C000DF0589F0D8016D918D01D601ED91FC9177
:1015D0000190F081E02DC6010995892B11F47E015F
:1015E00002C02196ECCFC701DF91CF911F910F91DF
:1015F000FF90EF90DF90CF900895FC01538D448DC4
:10160000252F30E0842F90E0821B930B541710F0AD
:10161000CF96089501970895FC01918D828D9817BA
:1016200061F0828DDF01A80FB11D5D968C91928DC6
:101630009F5F9F73928F90E008958FEF9FEF0895C3
:10164000FC01918D828D981731F0828DE80FF11D8C
:10165000858D90E008958FEF9FEF0895FC01918DA7
:10166000228D892F90E0805C9F4F821B91098F73A0
:10167000992708958FE694E00E942E0B21E0892B94
:1016800009F420E0822F0895FC01848DDF01A80F6A
:10169000B11DA35ABF4F2C91848D90E001968F739A
:1016A0009927848FA689B7892C93A089B1898C91B9
:1016B00080648C93938D848D981306C00288F3897F
:1016C000E02D80818F7D80830895EF92FF920F93AC
:1016D0001F93CF93DF93EC0181E0888F9B8D8C8DDE
:1016E000981305C0E889F989808185FD24C0F62E0C
:1016F0000B8D10E00F5F1F4F0F731127E02E8C8DA5
:10170000E8120CC00FB607FCFACFE889F98980818E
:1017100085FFF5CFCE010E94440BF1CF8B8DFE01EA
:10172000E80FF11DE35AFF4FF0820B8FEA89FB8926
:101730008081806207C0EE89FF896083E889F9892A
:1017400080818064808381E090E0DF91CF911F9160
:101750000F91FF90EF900895CF93DF93EC01888D68
:101760008823C9F0EA89FB89808185FD05C0A889A5
:10177000B9898C9186FD0FC00FB607FCF5CF80812B
:1017800085FFF2CFA889B9898C9185FFEDCFCE0175
:101790000E94440BE7CFDF91CF91089580E090E065
:1017A000892B29F00E943A0B81110C9400000895B6
:1017B0003FB7F8948091FE039091FF03A09100043D
:1017C000B091010426B5A89B05C02F3F19F00196E2
:1017D000A11DB11D3FBFBA2FA92F982F8827820FB7
:1017E000911DA11DB11DBC01CD0142E0660F771F07
:1017F000881F991F4A95D1F708950E940A1AEF92FF
:10180000FF920F931F93CF93DF93CDB7DEB7299746
:101810000FB6F894DEBF0FBECDBF8C01862FF80146
:1018200011821082138212821582148250E09E016E
:101830002F5F3F4F7901B90190E00E947317F701C4
:1018400001900020E9F73197AF014E195F09B70108
:10185000C8010E94951029960FB6F894DEBF0FBEFE
:10186000CDBFDF91CF911F910F91FF90EF90089521
:10187000FC011182108213821282158214820C9450
:10188000B610FC011182108213821282158214821A
:101890006115710551F0FB0101900020E9F73197C6
:1018A000AF01461B570B0C949510089561157105F7
:1018B00079F0FB0101900020E9F73197AF01461B59
:1018C000570BDC01ED91FC910280F381E02D09942E
:1018D00080E090E008954F925F926F927F92EF9236
:1018E000FF920F931F93CF93DF93CDB7DEB7A197EE
:1018F0000FB6F894DEBF0FBECDBF7C01FA01CB015D
:1019000019A2223008F42AE08E010F5D1F4F422EEB
:10191000512C612C712CBF01A30192010E94A817C8
:10192000F901CA01015011096A3014F4605D01C067
:10193000695CD8016C93232B242B252B61F7B8010C
:10194000C7010E94560CA1960FB6F894DEBF0FBED9
:10195000CDBFDF91CF911F910F91FF90EF907F90BE
:101960006F905F904F9008950C94560C1F920F92B9
:101970000FB60F9211242F933F934F935F936F9362
:101980007F938F939F93AF93BF93EF93FF938FE6D4
:1019900094E00E94440BFF91EF91BF91AF919F9112
:1019A0008F917F916F915F914F913F912F910F9008
:1019B0000FBE0F901F9018951F920F920FB60F92A7
:1019C00011242F938F939F93EF93FF93E0917F04C4
:1019D000F09180048081E0918504F091860482FD7D
:1019E00012C09081809188048F5F8F732091890449
:1019F000821751F0E0918804F0E0E159FB4F958F98
:101A00008093880401C08081FF91EF919F918F9115
:101A10002F910F900FBE0F901F90189590E0FC0132
:101A2000E656FF4F3491FC01EA52FF4F2491FC012E
:101A3000EE53FF4FE491EE2309F43BC0332339F119
:101A4000333091F038F43130A9F0323001F584B5FB
:101A50008F7D12C0373091F03830A1F03430B9F4B6
:101A6000809180008F7D03C0809180008F7780936C
:101A700080000DC084B58F7784BD09C08091B0000F
:101A80008F7703C08091B0008F7D8093B000F0E02D
:101A9000EE0FFF1FE255FF4FA591B4918FB7F89459
:101AA000EC91611103C020952E2301C02E2B2C93A5
:101AB0008FBF0895CF93DF93EC0160E08E810E9489
:101AC0000E0D61E08E810E940E0D60E08E810E94FD
:101AD0000E0D8BE891E00197F1F7DF91CF9108951A
:101AE0008F929F92AF92BF92CF92DF92EF92FF922E
:101AF0006B017C010E94D80B4B015C01C114D10425
:101B0000E104F104F1F00E94D80BDC01CB0188194B
:101B10009909AA09BB09883E9340A105B10570F354
:101B200021E0C21AD108E108F10888EE880E83E0AE
:101B3000981EA11CB11CC114D104E104F10419F7D1
:101B4000DDCFFF90EF90DF90CF90BF90AF909F9050
:101B50008F9008952FB7F8946091FA037091FB036A
:101B60008091FC039091FD032FBF08951F920F9267
:101B70000FB60F9211242F933F938F939F93AF93A0
:101B8000BF938091FA039091FB03A091FC03B09165
:101B9000FD033091F90323E0230F2D3720F4019644
:101BA000A11DB11D05C026E8230F0296A11DB11D80
:101BB0002093F9038093FA039093FB03A093FC0313
:101BC000B093FD038091FE039091FF03A091000468
:101BD000B09101040196A11DB11D8093FE03909365
:101BE000FF03A0930004B0930104BF91AF919F91B4
:101BF0008F913F912F910F900FBE0F901F901895CE
:101C0000CF92DF92EF92FF920F931F93CF93DF93C8
:101C10007C016C0187E0C80ED11CC0E0D0E0062F2B
:101C200010E0B8010C2E02C0759567950A94E2F792
:101C30006170F60181916F010E940E0D2196C430F2
:101C4000D10579F7C701DF91CF911F910F91FF90D7
:101C5000EF90DF90CF900C945A0DCF92DF92EF92DD
:101C6000FF920F931F93CF93DF93EC01F62E642F17
:101C70008C810E940E0D8D818F3F19F060E00E94D3
:101C80000E0D8F850F2D10E084FF25C06E0187E0BB
:101C9000C80ED11CE12CF12CB8010E2C02C0759598
:101CA00067950A94E2F76170F60181916F010E94D5
:101CB0000E0DFFEFEF1AFF0A88E0E816F10461F756
:101CC000CE01DF91CF911F910F91FF90EF90DF90A8
:101CD000CF900C945A0DB80184E0759567958A955C
:101CE000E1F7CE010E94000E6F2DCE01DF91CF9162
:101CF0001F910F91FF90EF90DF90CF900C94000E0A
:101D00000F931F93CF93DF93EC0188819981009704
:101D100029F02A813B812617370788F48B016F5FF2
:101D20007F4F0E944019009761F0998388831B833D
:101D30000A832C813D81232B11F4FC01108281E068
:101D400001C080E0DF91CF911F910F91089590E045
:101D5000FC01EA52FF4F2491FC01EE53FF4F8491A6
:101D6000882399F090E0880F991FFC01E854FF4FF9
:101D7000A591B491FC01E255FF4F859194918FB7E5
:101D8000F894EC91E22BEC938FBF0895EF92FF92C1
:101D90000F931F93CF93DF93EC01623018F08F8580
:101DA00088608F876B8B1C8A80E48D8B80E18E8BA3
:101DB00080E58F8B8C810E94A70E8D818F3F11F063
:101DC0000E94A70E8E810E94A70E7E0187E0E80E7A
:101DD000F11C00E010E08F8584FD03C084E090E0FA
:101DE00002C088E090E00817190744F4F7018191D8
:101DF0007F010E94A70E0F5F1F4FEDCF8BE39DE089
:101E00000197F1F760E08C810E940E0D60E08E81F9
:101E10000E940E0D8D818F3F19F060E00E940E0D23
:101E20006F8564FD1DC063E0CE010E94000E0BE4CF
:101E300016E4C8010197F1F763E0CE010E94000E9D
:101E4000C8010197F1F763E0CE010E94000E83E51F
:101E500092E00197F1F762E0CE010E94000E16C0F9
:101E60006062CE010E94C7138BE496E40197F1F7FC
:101E70006F856062CE010E94C71383E592E00197EF
:101E8000F1F76F856062CE010E94C7136F856062B3
:101E9000CE010E94C71384E0888B6CE0CE010E94C3
:101EA000C713CE010E94CA1382E0898B66E0CE017F
:101EB000DF91CF911F910F91FF90EF900C94C7137A
:101EC000682F84E595E00C948E13643008F063E08D
:101ED00090919705691710F06FEF690FE62FF0E00A
:101EE000EC57FA4F9489682F690F606884E895E091
:101EF0000C94C713FC01448155816081718184E891
:101F000095E00C94D20A20916E0490916D042132D8
:101F100008F04AC080914A048111FCCF32E030932E
:101F20004A0431E0309349043FEF30934804109263
:101F3000470420934604ADE4B4E046E254E0FA01DD
:101F40003E2F341B321718F43D913193F9CF109284
:101F5000250420912504990F922B909325049091AC
:101F60002404913061F410922404909125049093FC
:101F7000BB009091BC0093FDF8CF95EC01C095EEAD
:101F80009093BC0090914A049230E1F39091480400
:101F90009F3F79F080914804803241F0809148045D
:101FA000803331F084E005C081E003C082E001C0ED
:101FB00083E010924C0410926E0410924B0408952A
:101FC00090914A049111FCCF813208F080E291E0B7
:101FD00090934A04909349042FEF20934804109261
:101FE0004704280F209346049093250490912504DC
:101FF000906D9093250490912404913061F4109297
:102000002404909125049093BB009091BC0093FD13
:10201000F8CF95EC01C095EE9093BC0090914A04E6
:102020009130E1F390914704981710F480914704A0
:10203000A6E2B4E024E034E0F9019E2F921B981749
:1020400018F49D919193F9CF1092030480930204A8
:102050000895EF92FF920F931F93CF93DF93FC01AC
:10206000248135816115710511F480E019C0411595
:102070005105A9F07B01EC018A01020F131FB80181
:102080000E94800E882389F3288139818C819D816B
:10209000B701820F931F0E94181A1D830C8381E0E1
:1020A000DF91CF911F910F91FF90EF900895CF9303
:1020B000DF93EC0188819981009711F00E94A818A4
:1020C000198218821D821C821B821A82DF91CF9195
:1020D0000895CF93DF93EC016115710561F0FB0169
:1020E00001900020E9F73197AF01461B570B0E9482
:1020F0002910811103C0CE010E945710CE01DF913B
:10210000CF910895CF93DF93EC01FB01448155817A
:10211000608171810E942910811103C0CE010E944B
:102120005710CE01DF91CF910895EF92FF920F9358
:102130001F93CF93DF93EC017B018A01BA010E94C8
:10214000800E811104C0CE010E94571007C01D836C
:102150000C83B701888199810E94181ACE01DF9102
:10216000CF911F910F91FF90EF900895CF93DF9340
:10217000EC01FB018617970761F0608171816115A1
:10218000710529F0448155810E94951002C00E947A
:102190005710CE01DF91CF910895FC01808191818C
:1021A0000C94A818CF92DF92EF92FF920F931F9397
:1021B000CF93DF93611102C080E028C08C010E94A0
:1021C000AA0D2AE0209FE001219FD00D1124C65FB7
:1021D000DC4F0C811D812E813F81C880D980EA802F
:1021E000FB800C0D1D1D2E1D3F1D60177107820702
:1021F000930710F30E94AA0D6C837D838E839F83C7
:102200008885998501969987888781E0DF91CF91AC
:102210001F910F91FF90EF90DF90CF90089586135C
:1022200006C080910803882311F0C90101C0CA01CA
:102230000C947A0FCF93C82F84E895E00E94CA13BC
:10224000C093E60381E080930903CF91089591E064
:1022500090934B0498E690936D0410924C04109266
:102260006E04682F84E595E00E948E130E94830F10
:1022700091E0811190E0892F0895CF93DF9380E062
:102280000E9427118093F80387E090E00E94E00FFE
:1022900084E595E00E944213C1EFD3E0982F969514
:1022A000969596959E70292F220F220F920F8F7070
:1022B000890F888384E595E00E944213982F9295B8
:1022C0009F708F702AE0929F800D1124898384E58E
:1022D00095E00E944213982F92959F708F702AE08C
:1022E000929F800D11248A8384E595E00E94421319
:1022F000982F92959F708F702AE0929F800D1124E5
:102300008B8384E595E00E944213982F92959F70ED
:102310008F702AE0929F800D11248C8384E595E0D4
:102320000E944213982F92959F708F702AE0929F7F
:10233000800D11248D8384E595E00E944213982F2F
:1023400092959F708F702AE0929F800D11248E834A
:10235000DF91CF910895CF92DF92EF92FF920F938A
:102360001F93CF93DF9300D01F92CDB7DEB7F82E27
:1023700011E010934B0488E6D82ED0926D04109291
:102380004C0410926E0480E090E02B834A836983B2
:102390000E94600F80E890E00E94600F9AE0C92ED2
:1023A0006981862F6C2D0E940118692F30E1839F6F
:1023B000600D112484E595E00E948E138F2D6C2D05
:1023C0000E94011830E1839F900D1124892F8F7393
:1023D00090E00E94600F4A81842F6C2D0E940118AA
:1023E000692F30E1839F600D112484E595E00E9400
:1023F0008E132B81822F6C2D0E940118692F20E1F2
:10240000829F600D112484E595E00E948E13802F39
:102410006C2D0E940118692F30E1839F600D1124FB
:1024200084E595E00E948E138E2D6C2D0E9401187C
:10243000692F20E1829F600D112484E595E00E94C0
:102440008E130E94830F80E00E9427118093F8036F
:1024500081E090E00E94E00F84E595E00E94421345
:102460007C0110934B04D0926D0410924C04109296
:102470006E0480E090E00E94600FC7018F7799277B
:102480000E94600F0F900F900F90DF91CF911F91DE
:102490000F91FF90EF90DF90CF900C94830FCF932C
:1024A0000E942711C82F83E090E00E94E00F84E58E
:1024B00095E00E9442138093EB0384E595E00E942F
:1024C00042138093EC0384E595E00E94421321E0DF
:1024D000892B09F420E02093ED038C2FCF910895F0
:1024E000CF93DF93EC0160E080E00E94650F84E809
:1024F00095E00E94CA13BE0184E895E00E94B40CE6
:1025000068EE73E080E090E0DF91CF910C94700D65
:10251000CF93DF93EC01862F90E087309105D0F4C4
:10252000FC01EA5BFF4F0C940D1869ED72E014C0DA
:102530006DED72E011C061EE72E00EC065EE72E00A
:102540000BC069EE72E008C06DEE72E005C061EF8D
:1025500072E002C065EF72E0CE010E94410CCE0134
:10256000DF91CF910895CF93DF93EC01662319F0AB
:1025700069EF72E002C06FEF72E0CE010E94410C81
:10258000CE01DF91CF9108950F931F93CF93DF93E7
:10259000CDB7DEB72C970FB6F894DEBF0FBECDBF18
:1025A0008C014AE06A30F0F4CE0107960E94FF0BDE
:1025B00065E073E0CE0101960E94410CBE01695FA7
:1025C0007F4FCE0101960E948210BC01C8010E947B
:1025D000380CCE0101960E94CD10CE0107960E94C4
:1025E000CD1002C00E94FF0BC8012C960FB6F894C4
:1025F000DEBF0FBECDBFDF91CF911F910F91089528
:1026000085ED8093BC008091BC0084FDFCCF1092CE
:102610004A0408954091BE05262F30E0240F311D55
:1026200021323105DCF420914A042430C9F4FC0144
:1026300080E090E0861758F43091BE052191DC01CE
:10264000A456BA4FA30FB11D2C930196F3CF8091DE
:10265000BE05680F6093BE0580E0089581E008958F
:1026600082E008950895E091030480910204E81740
:1026700030F4F0E0EC5FFB4F808190E008958FEF45
:102680009FEF08959091030480910204981750F4ED
:10269000E92FF0E0EC5FFB4F208130E09F5F9093EB
:1026A000030402C02FEF3FEFC90108958091020497
:1026B00090E020910304821B91090895CF92DF924C
:1026C000EF92FF920F931F93CF93DF937C01262FFE
:1026D000972F8A0180914B04882391F0C62FD72F22
:1026E0006E01C40ED51ECC15DD0571F06991D701C0
:1026F000ED91FC910190F081E02DC7010995F3CF98
:10270000642F822F0E940A13C801DF91CF911F917D
:102710000F91FF90EF90DF90CF900895CF93DF93CC
:102720001F92CDB7DEB7698320914B042223D1F0ED
:1027300020916E04203240F021E030E0FC01338330
:10274000228380E090E015C080914C04E82FF0E0F7
:10275000E35BFB4F998190838F5F80934C04809360
:102760006E0405C061E0CE0101960E940A1381E06B
:1027700090E00F90DF91CF910895089580E090E070
:10278000089541E00E942D0E81E090E0089540E020
:102790000C942D0E61E00E94C7138BE39FE101971B
:1027A000F1F708951F920F920FB60F9211242F93F5
:1027B0003F934F935F936F937F938F939F93AF93C9
:1027C000BF93EF93FF938091B900887F803609F41F
:1027D0009CC068F5883209F45BC090F4803109F43C
:1027E00054C038F4882309F4F6C0883009F44DC089
:1027F000F6C0883109F44CC0803209F45DC0EFC0E6
:10280000803409F468C048F4803309F455C0883333
:1028100009F0E5C080934804D8C0803509F44FC062
:10282000883509F45DC0883409F0D9C0D6C088392C
:1028300009F4C7C0A8F4883709F467C038F48836AB
:1028400009F463C0803709F460C0C9C0883809F44E
:10285000B8C0803909F45FC0803809F0C0C05BC0DF
:10286000803B09F486C038F4803A09F466C0883A9F
:1028700009F47FC0B4C0803C09F4A7C0883C09F4C7
:10288000A4C0883B09F48AC0AAC08091250410C066
:102890009091470480914604981770F5E0914704A1
:1028A00081E08E0F80934704F0E0EA5DFB4F80816A
:1028B0008093BB0085EC86C0809348048EC0E09175
:1028C000470481E08E0F809347048091BB00F0E0C5
:1028D000EA5DFB4F808390914704809146046EC06F
:1028E000E091470481E08E0F809347048091BB0004
:1028F000F0E0EA5DFB4F80838091490481116DC057
:1029000081E08093240484EA61C083E080934A04D8
:102910001092E205CFCF8091E205803208F051C0DD
:10292000E091E20581E08E0F8093E2058091BB008B
:10293000F0E0EE53FA4F8083BDCF85EC8093BC006E
:1029400010924A048091E205803230F4E091E20571
:10295000F0E0EE53FA4F10826091E20570E0E091F2
:10296000C005F091C10582EC95E009951092E20551
:1029700036C084E080934A041092BF051092BE05D1
:10298000E091BC05F091BD0509958091BE058111CE
:1029900005C081E08093BE0510929C05E091BF05C3
:1029A00081E08E0F8093BF05F0E0E456FA4F8081FE
:1029B0008093BB009091BF058091BE05981708F4E5
:1029C00079CF85E88093BC000AC085EC8093BC0079
:1029D00010924A0404C0109248040E940013FF9110
:1029E000EF91BF91AF919F918F917F916F915F9187
:1029F0004F913F912F910F900FBE0F901F90189500
:102A0000789484B5826084BD84B5816084BD85B5C9
:102A1000826085BD85B5816085BD80916E008160D5
:102A200080936E001092810080918100826080937B
:102A3000810080918100816080938100809180007D
:102A40008160809380008091B10084608093B100A8
:102A50008091B00081608093B00080917A008460A2
:102A600080937A0080917A00826080937A008091CE
:102A70007A00816080937A0080917A0080688093E8
:102A80007A001092C10010925005109251051092D8
:102A900052051092530510920E0510920F051092D8
:102AA0001005109211050E94AA0D6B017C014B01CB
:102AB0005C0188EB880E8BE0981EA11CB11C0E9463
:102AC000AA0D6C157D058E059F0528F086169706C4
:102AD000A806B906A0F78FE694E090934F0580937F
:102AE0004E05E0917F04F091800482E08083E091C4
:102AF0007B04F0917C041082E0917D04F0917E04CF
:102B000080E1808310928704E0918304F091840433
:102B100086E08083E0918104F0918204808180616D
:102B20008083E0918104F0918204808188608083B9
:102B3000E0918104F0918204808180688083E0913B
:102B40008104F091820480818F7D80830E94AA0D90
:102B500060930E0570930F058093100590931105F7
:102B60006BEC71E080914E0590914F050E94B40C82
:102B70000E94AA0D6B017C014B015C018AE0880E6A
:102B8000911CA11CB11C0E94AA0D6C157D058E051F
:102B90009F0528F086169706A806B906A0F7C1E09B
:102BA000C09322058AE00E94A70E61E08AE00E949D
:102BB0000E0D82E00E94A70E60E082E00E940E0DE2
:102BC00062E084E895E00E94C60E8DED91E00E94DF
:102BD00070128EEE91E00E9470128DEF91E00E94D3
:102BE000701260ED77E080E090E00E94700D10922E
:102BF00003041092020410924C0410926E0410927E
:102C00004A04C09349041092240461E082E10E94C6
:102C10000E0D61E083E10E940E0D8091B9008E7F60
:102C20008093B9008091B9008D7F8093B90088E4CA
:102C30008093B80085E48093BC0080E00E94271157
:102C40008093F8030E943D118091F1038C3310F0C2
:102C50001092F8038091F2038C3310F01092F80375
:102C60008091F303883110F01092F8038091F403FF
:102C7000873010F01092F8038091F50381508F3166
:102C800010F01092F8038091F60381508C3010F010
:102C90001092F8038091F703843610F01092F80335
:102CA0008091F803811107C0E12C01E021E040E0B0
:102CB00060E00E94AB118091F803882319F08EE048
:102CC00092E002C08FE192E00E94701280E392E0F5
:102CD0000E94701288E00E944F12882379F0809140
:102CE000EB039091EC03A091ED038093EE0390939E
:102CF000EF03A093F00381E492E002C081E592E04B
:102D00000E94701280E10E944F12882379F0809116
:102D1000EB039091EC03A091ED038093E803909373
:102D2000E903A093EA0382E692E002C083E792E01F
:102D30000E94701284E895E00E94CA1381E080939B
:102D4000E7031092E6030E94A1000E94CE0BFBCF86
:102D5000EFE6F4E01382128288EE93E0A0E0B0E0A8
:102D600084839583A683B7832CE031E0318320836D
:102D700025EC30E03587248724EC30E03787268740
:102D800020EC30E0318B208B21EC30E0338B228B38
:102D900022EC30E0358B248B26EC30E0378B268B11
:102DA000118E128E138E148EECE0F5E016821782CF
:102DB0001086118612861386148615861686178647
:102DC000108A118A128A138A148A158AE4E5F5E0BA
:102DD0001382128284839583A683B7838EE191E068
:102DE00091838083E4E8F5E01382128280E391E02E
:102DF0009183808388E084838FEF858389E0868355
:102E000084E0878385E0808786E0818787E082870A
:102E10001386148615861686178661E0CF010E94F8
:102E2000C60E64E872E080E695E00E94410C65E918
:102E300072E086E695E00E94410C66EA72E08CE65C
:102E400095E00E94410C67EB72E082E795E00E94FA
:102E5000410C68EC72E088E795E00E94410C6CE45C
:102E600071E08EE795E00C94410C0F931F93CF9384
:102E7000DF931F92CDB7DEB7182F062F81E0809326
:102E80004B0488E680936D0410924C0410926E04FB
:102E9000622F84E595E049830E948E13602F84E5BC
:102EA00095E00E948E13612F84E595E00E948E13B9
:102EB0004981842F90E00E94600F0F90DF91CF91A5
:102EC0001F910F910C94830FCF93DF93C4E8D5E04B
:102ED0002697CE010E94CD1085E0C036D807C1F7F5
:102EE000DF91CF9108954532510520F4423010F022
:102EF0000C947E17FB011082CB010895BB27FB01C8
:102F00005527AA27880F991FAA1FA41710F0A41BE2
:102F100083955051B9F7A05DAA3308F0A95DA1933C
:102F2000009779F7B111B1931192CB010C949817D6
:102F3000DC01FC01672F71917723E1F7329704C020
:102F40007C916D9370836291AE17BF07C8F30895AB
:102F5000A1E21A2EAA1BBB1BFD010DC0AA1FBB1F9D
:102F6000EE1FFF1FA217B307E407F50720F0A21B0F
:102F7000B30BE40BF50B661F771F881F991F1A947C
:102F800069F760957095809590959B01AC01BD01A6
:102F9000CF0108952F923F924F925F926F927F924E
:102FA0008F929F92AF92BF92CF92DF92EF92FF9259
:102FB0000F931F93CF93DF93CDB7DEB7CA1BDB0B05
:102FC0000FB6F894DEBF0FBECDBF09942A883988AA
:102FD00048885F846E847D848C849B84AA84B984B1
:102FE000C884DF80EE80FD800C811B81AA81B981BD
:102FF000CE0FD11D0FB6F894DEBF0FBECDBFED01D1
:103000000895991B79E004C0991F961708F0961B44
:10301000881F7A95C9F780950895EE0FFF1F0590D8
:10302000F491E02D0994CF93DF938230910510F451
:1030300082E090E0E091E505F091E60520E030E0E7
:10304000C0E0D0E0309711F1408151814817590715
:10305000C0F04817590761F482819381209719F0D5
:103060009B838A832BC09093E6058093E50526C059
:103070002115310519F04217530718F49A01BE01C2
:10308000DF01EF010280F381E02DDCCF2115310556
:1030900009F1281B390B2430310590F412968D91DB
:1030A0009C9113976115710521F0FB019383828335
:1030B00004C09093E6058093E505FD01329644C077
:1030C000FD01E20FF31F81939193225031092D935B
:1030D0003C933AC02091E3053091E405232B41F461
:1030E00020910401309105013093E4052093E3051C
:1030F00020910201309103012115310541F42DB7D2
:103100003EB74091060150910701241B350BE09119
:10311000E305F091E405E217F307A0F42E1B3F0B43
:103120002817390778F0AC014E5F5F4F2417350739
:1031300048F04E0F5F1F5093E4054093E3058193E1
:10314000919302C0E0E0F0E0CF01DF91CF910895CC
:103150000F931F93CF93DF93009709F48CC0FC016A
:103160003297138212820091E5051091E605011550
:10317000110581F420813181820F931F2091E30595
:103180003091E4052817390779F5F093E405E093C9
:10319000E30571C0D80140E050E0AE17BF0750F41E
:1031A00012962D913C911397AD012115310509F12E
:1031B000D901F3CF9D01DA013383228360817181CC
:1031C000860F971F8217930769F4EC0128813981D4
:1031D000260F371F2E5F3F4F318320838A819B81CB
:1031E00093838283452B29F4F093E605E093E5056C
:1031F00042C01396FC93EE931297ED0149915991B9
:103200009E01240F351FE217F30771F4808191812D
:10321000840F951F029611969C938E9382819381C1
:1032200013969C938E931297E0E0F0E0D8011296EB
:103230008D919C911397009719F0F8018C01F6CFAE
:103240008D919C9198012E5F3F4F820F931F20918B
:10325000E3053091E4052817390769F4309729F41C
:103260001092E6051092E50502C0138212821093B7
:10327000E4050093E305DF91CF911F910F9108952D
:10328000A0E0B0E0E6E4F9E10C94CE17EC01009781
:1032900021F4CB010E941318B8C0FC01E60FF71F00
:1032A0009C0122503109E217F30708F4ACC0D901A0
:1032B0000D911C91119706171707B0F005301105F5
:1032C00008F49FC0C80104978617970708F499C0AF
:1032D00002501109061B170B019311936D937C93F8
:1032E000CF010E94A8188DC05B01A01AB10A4C0141
:1032F000800E911EA091E505B091E60540E050E0FA
:10330000E12CF12C109709F44AC0A815B905D1F5A4
:103310006D907C901197630182E0C80ED11CCA1495
:10332000DB0480F1A3014A195B096A0182E0C80E3F
:10333000D11C1296BC9012971396AC91B5E0CB16A7
:10334000D10440F0B282A38351834083D9016D93AD
:103350007C930AC00E5F1F4FC301800F911FF901BC
:1033600091838083EB2DFA2FE114F10431F0D70122
:103370001396FC93EE93129744C0F093E605E09306
:10338000E5053FC08D919C9111974817590708F4A6
:10339000AC017D0112960D90BC91A02DB3CF809110
:1033A000E3059091E40588159905E1F44617570760
:1033B000C8F48091020190910301009741F48DB708
:1033C0009EB74091060150910701841B950BE817A9
:1033D000F907C8F4F093E405E093E305F90171837C
:1033E00060830FC0CB010E9413187C01009759F035
:1033F000A801BE010E940F1ACE010E94A818C701A1
:1034000004C0CE0102C080E090E0CDB7DEB7EEE0B0
:103410000C94EA1781E090E0F8940C941F1AFB01D9
:10342000DC0102C001900D9241505040D8F7089540
:10343000FB01DC0101900D920020E1F7089510E0FE
:10344000C6E7D0E004C0FE010E940D182196C737E0
:08345000D107C9F7F894FFCF82
:1034580001050000E705800000000000650BD20AA6
:10346800FD0AAC0B2E0B0C0B200B000000008E137A
:103478005E13BE13321356134213331300000000B9
:10348800C113D20ABE13BD13564D4450455F003ACE
:10349800323A007C005F564D4450450020202020E1
:1034A800202020202020202020202020002F005411
:1034B800696D6572204F4E20200054696D65722039
:1034C8004F464620002020202053746174757320D5
:1034D8004F4B20202000202046616C6861207265D7
:1034E8006C6F67696F2000446174610043616E63AB
:1034F800656C610043616E630052656C6F670042E2
:103508006174657269613A200020560053656C65E4
:1035180063743A20566F6C74617200564D4450566D
:103528005F317C315F564D4450560D0A00203E3CB9
:103538003E204171756172696F203E3C3E00532FF9
:10354800572056657273616F20302E38004C656EB7
:10355800646F2072656C6F67696F2E2E2E002020B5
:103568002052656C6F67696F204F4B202020004602
:10357800616C6861206E6F2072656C6F67696F009F
:103588004C656E646F206D656D6F7269612E2E2EAD
:10359800004D656D2054696D6572204F4E204F4B6C
:1035A8000046616C6861204D656D20546D72204F36
:1035B8004E004D656D2054696D6572204F4646205A
:1035C8004F4B0046616C6861204D656D20546D72EB
:1035D8004F464600416A757374617220686F726164
:1035E8002E2E2E200054696D6572204F4E2E2E2EE1
:1035F80020202020200054696D6572204F46462EF9
:103608002E2E20202020005374617475732072655B
:103618006C6F67696F202000536169722020202039
:1036280020202020202020200053454700544552C8
:1036380000515541005155490053455800534142E6
:1036480000444F4D0045525200417469766F004363
:08365800616E632000300000E8
:00000001FF
